:020000040800F2
:100000006807002089010008C91C0008CB1C0008F3
:10001000CF1C0008D31C0008D71C000800000000FB
:10002000000000000000000000000000DB1C0008D1
:10003000DD1C000800000000DF1C0008031D000894
:10004000A3010008A3010008A3010008A301000800
:10005000A3010008A3010008151D00082D1D0008BC
:10006000451D00085D1D0008751D0008A30100085E
:10007000A3010008A3010008A3010008A3010008D0
:10008000A3010008A3010008A3010008A3010008C0
:10009000A3010008A3010008A30100088D1D0008AA
:1000A000A3010008A3010008A3010008A3010008A0
:1000B000E11C0008A3010008A3010008A301000837
:1000C000A3010008A3010008A3010008A301000880
:1000D000A30100085B1E0008A3010008A30100089B
:1000E000EF1D0008A3010008A301000800F002F8BA
:1000F00000F03AF80AA090E8000C82448344AAF188
:100100000107DA4501D100F02FF8AFF2090EBAE885
:100110000F0013F0010F18BFFB1A43F0010318473B
:1001200090310000B0310000103A24BF78C878C187
:10013000FAD8520724BF30C830C144BF04680C60ED
:10014000704700000023002400250026103A28BF35
:1001500078C1FBD8520728BF30C148BF0B60704739
:100160001FB51FBD10B510BD03F06BF81146FFF7AA
:10017000F7FF00F0F6F803F089F803B4FFF7F2FF99
:1001800003BC03F08DF80000094880470948004788
:10019000FEE7FEE7FEE7FEE7FEE7FEE7FEE7FEE737
:1001A000FEE7FEE704480549054A064B7047000094
:1001B000A5080008ED00000868010020680700207D
:1001C000680300206803002070B505460E461446FB
:1001D0002CB101223146284600F057FF07E02CB928
:1001E00000223146284600F050FF00E070BD00BFFD
:1001F000FCE710B5044604F080028021FE48FFF7BA
:10020000E3FF04F040024FF48071FB48FFF7DCFF8E
:1002100004F020024FF40071F748FFF7D5FF04F017
:1002200010024FF48071F548FFF7CEFF04F008028A
:100230004FF40071F148FFF7C7FF04F004024FF4D8
:100240008061EE48FFF7C0FF04F002024FF4006146
:10025000EA48FFF7B9FF04F001024FF48051E74884
:10026000FFF7B2FF10BD10B5044607230122214657
:10027000E34802F004FE0121E14802F0D4FD00BF92
:100280000221DF4802F040FF0028F9D0DC4802F0EC
:100290005DFE10BD2DE9F04107460C460026002505
:1002A00005E03846FFF7DFFF0644681CC5B2A542EB
:1002B000F7DBB6FBF4F080B2BDE8F08110B5044680
:1002C00001210020FFF7E6FFE08101210846FFF74A
:1002D000E1FFA08101210220FFF7DCFF6081012105
:1002E0000320FFF7D7FF208001210420FFF7D2FF72
:1002F000E08301210520FFF7CDFFA0830121062027
:10030000FFF7C8FF608301210720FFF7C3FFA0822A
:1003100001210820FFF7BEFFE08201210920FFF73D
:10032000B9FF208201210A20FFF7B4FF20810121BB
:100330000B20FFF7AFFF608001210C20FFF7AAFF21
:10034000A08001210D20FFF7A5FFE08001210E20F4
:10035000FFF7A0FF208301210F20FFF79BFF6082A2
:1003600010BDADF5627D00F016FB00F077FC00F0EB
:100370009FFA00F00EFD00F0D9FC0120A1490870A1
:100380000020A1490870A1490870A1490870072000
:10039000A04908700020A0490870A04908700120F9
:1003A0009F4908700020ADF804010026ADF87800E0
:1003B0008DF87C0000278046002404E00020994945
:1003C0000855601CC4B2072CF8DB002418E000219B
:1003D00031A840F8241000250EE0002004EB840131
:1003E00092AA02EB810121F8150042A901EB451107
:1003F00021F81400681CC5B20A2DEEDB601CC4B2E3
:10040000102CE4DBE4E07F48007850BB002419E0C6
:10041000854830F8140004EB840192AA02EB8101B4
:1004200021F8160031A850F824007F4931F8141043
:10043000014431A840F8241000207B4921F8140021
:10044000601CC4B2102CE3DB42A901EB4610FFF79D
:1004500035FF01206B490870701CC6B20A2E00DB04
:100460000026694800780128CCD16E496748007899
:10047000401C085C00F0FE0001026A4A63480078F4
:10048000801C105C00F0FE0041EA40015F480078EB
:10049000C01C105C41EA9010ADF8780011465B4832
:1004A0000078C01C085C00F03E00810257480078CC
:1004B000001D105C00F0FE0041EA80015348007806
:1004C000401D105C41EA1010ADF87A0011464F480B
:1004D0000078401D085C00F00E0002014B480078D7
:1004E000801D085C42EAD0008DF87C000020ADF849
:1004F00004014AF25A50ADF8800045F6E560ADF8C7
:100500000601002445E00027B846002510E004EB72
:10051000840092A901EB800030F81500384487B2BE
:1005200042A800EB451030F814008044681CC5B2A6
:100530000A2DECDB0DF1820020F814700A20B8FBC4
:10054000F0F081B20DF1A20020F81410BDF878008F
:100550000121A140084203D0002131A840F8241015
:100560000DF1A20030F81400B0F5006F08DDBDF801
:1005700004010121A140084380B2ADF8040106E066
:10058000BDF804010021A1408843ADF80401601CBE
:10059000C4B2102CB7DB9DF87C00FFF72AFE204880
:1005A000007840B1782224A9684602F015FE20A800
:1005B0000FC801F0E2FC00201349087013490870CD
:1005C0001349087007201349087000201249087069
:1005D00019E710B5044604F0010210211348FFF793
:1005E000F3FD04F0020220211048FFF7EDFD04F0B6
:1005F000040240210D481BE00010014000080140AA
:100600000024014000000020010000200200002022
:100610000300002004000020050000200600002048
:1006200007000020400000202000002000140140AE
:10063000FFF7CAFD04F0080208212948FFF7C4FDAE
:1006400004F0800210212648FFF7BEFD04F04002AE
:1006500020212348FFF7B8FD04F020024FF48071F9
:100660001F48FFF7B1FD04F010024FF400711C4861
:10067000FFF7AAFD04F400624FF480511948FFF718
:10068000A3FD04F4806201211748FFF79DFD04F4E7
:10069000007202211448FFF797FD04F480720421D0
:1006A0001148FFF791FD04F400424FF480510C48CB
:1006B000FFF78AFD04F480424FF400510848FFF729
:1006C00083FD04F400524FF480410548FFF77CFDA0
:1006D00004F480524FF400410148FFF775FD10BD4E
:1006E000000C014000100140001401401FB5012121
:1006F0003D2000F084FF0121FE4800F0E6FC702060
:10070000ADF8000010208DF8030003208DF80200E2
:100710006946F94800F00AFC7021F74800F0BCFC7B
:100720004FF23830ADF8080010208DF80B00032090
:100730008DF80A0002A9F14800F0F8FB4FF23831B9
:10074000EE4800F0A9FC4FF48050ADF804001020F2
:100750008DF8070003208DF8060001A9E84800F095
:10076000E5FB4FF48051E64800F096FC0720ADF819
:10077000000010208DF8030003208DF80200694668
:10078000DD4800F0D3FB0721DB4800F085FC0022A8
:100790004FF4F851DB4800F078FC00224FF4607110
:1007A000D74800F072FC4FF46070ADF804001020E0
:1007B0008DF8070003208DF8060001A9D04800F04D
:1007C000B5FB4FF46071CE4800F066FC4FF4F85072
:1007D000ADF80C0010208DF80F0003208DF80E00EE
:1007E00003A9C84800F0A2FB4FF4F851C54800F037
:1007F00053FC00224FF4F851C24800F046FC00229E
:100800004FF46071BE4800F040FC00227721BA48E6
:1008100000F03BFC00224FF23831B84800F035FCC4
:1008200000224FF48051B64800F02FFC1FBD10B5D8
:1008300000F0C8FC4FF4803000F0EBFC00F028FD25
:100840000446012C2DD1B048006840F01000AE499C
:1008500008600846006820F0030008600846006849
:1008600040F002000860002000F085FD002000F04C
:1008700094FDA00200F088FD2105081100F031FD73
:10088000012000F03AFD00BF392000F0E5FC00280F
:10089000FAD0022000F061FD00BF00F067FD0828DB
:1008A000FBD110BD10B5FFF7C2FFFFF71FFF10BD52
:1008B00000B589B00121084600F0A1FE0121042005
:1008C00000F003FC4020ADF8080018208DF80B0064
:1008D00003208DF80A0002A9884800F027FB402178
:1008E000864800F0D9FB8020ADF8080004208DF880
:1008F0000B0002208DF80A0002A9804800F016FBC8
:1009000080217E4800F0C8FB25208DF804000120DE
:100910008DF8050000208DF8060001208DF80700F5
:1009200001A801F068F90121880300F068FE4FF486
:10093000E13005900020ADF820000C20ADF81E003D
:100940000020ADF81C00ADF81A00ADF81800ADF8A5
:100950000C00ADF80E004FF40070ADF81000002050
:10096000ADF8120005A9694800F0F1FE03A9674837
:1009700000F062FF012240F22551644800F080FF40
:1009800040F22551614801F08AF801215F4800F0EA
:100990006AFF09B000BD0EB50121402000F02FFE16
:1009A000FF20ADF8000004208DF8030003208DF82F
:1009B00002006946564800F0B9FA4FF47F40ADF89E
:1009C000000004208DF8030003208DF80200694622
:1009D000494800F0ABFA0021042000F0BBFB0120E5
:1009E000019000208DF8080008208DF809000120F2
:1009F0008DF80A0001A801F079F80121042000F027
:100A0000A9FB0220019000208DF8080008208DF835
:100A1000090001208DF80A0001A801F067F8022101
:100A2000042000F097FB0420019000208DF80800BE
:100A300008208DF8090001208DF80A0001A801F0B6
:100A400055F80321042000F085FB082001900020C8
:100A50008DF8080008208DF8090001208DF80A00A3
:100A600001A801F043F80421084600F073FB1020B0
:100A7000019000208DF8080008208DF80900012061
:100A80008DF80A0001A801F031F80521042000F0DA
:100A900061FB2020019000208DF8080008208DF8CF
:100AA000090001208DF80A0001A801F01FF80621B5
:100AB000042000F04FFB4020019000208DF808003A
:100AC00008208DF8090001208DF80A0001A801F026
:100AD0000DF80721042000F03DFB8020019000204C
:100AE0008DF8080008208DF8090001208DF80A0013
:100AF00001A80FE00002300000140140000C01408A
:100B00000010014000080140002002400038014070
:100B10000018014000F0EAFF0821032000F01AFB52
:100B20004FF48070019000208DF8080008208DF8A7
:100B3000090001208DF80A0001A800F0D7FF092163
:100B4000032000F007FB4FF40070019000208DF8A7
:100B5000080008208DF8090001208DF80A0001A87E
:100B600000F0C4FF0A21032000F0F4FA4FF4806083
:100B7000019000208DF8080008208DF80900012060
:100B80008DF80A0001A800F0B1FF0B21032000F04E
:100B9000E1FA4FF40060019000208DF80800082071
:100BA0008DF8090001208DF80A0001A800F09EFFD1
:100BB0000C21032000F0CEFA4FF480500190002069
:100BC0008DF8080008208DF8090001208DF80A0032
:100BD00001A800F08BFF0D21032000F0BBFA4FF4B9
:100BE0000050019000208DF8080008208DF80900C1
:100BF00001208DF80A0001A800F078FF0E210320E3
:100C000000F0A8FA4FF48040019000208DF8080011
:100C100008208DF8090001208DF80A0001A800F0D5
:100C200065FF0F21032000F095FA4FF4004001907A
:100C300000208DF8080008208DF8090001208DF8AB
:100C40000A0001A800F052FF4FF47F41814800F0F4
:100C500023FAFF21804800F01FFA0EBD08B54FF4BB
:100C6000C06000F0C3FF06208DF8000000208DF862
:100C7000010001208DF802008DF80300684600F0A5
:100C8000BAFF07208DF8000000208DF80100012038
:100C90008DF802008DF80300684600F0ACFF0820D4
:100CA0008DF8000000208DF8010001208DF8020071
:100CB0008DF80300684600F09EFF09208DF80000C3
:100CC00000208DF8010001208DF802008DF803004E
:100CD000684600F090FF0A208DF8000000208DF893
:100CE000010001208DF802008DF80300684600F035
:100CF00082FF17208DF8000000208DF801000120F0
:100D00008DF802008DF80300684600F074FF28207B
:100D10008DF8000000208DF8010001208DF8020000
:100D20008DF80300684600F066FF08BD1FB501217D
:100D3000084600F071FC1C208DF80C0000208DF896
:100D40000D008DF80E0001208DF80F0003A800F0B3
:100D500052FF4FF47A70ADF8040041F61F40ADF831
:100D600000000020ADF80600ADF8020069464FF023
:100D7000804001F00BFA0121880701F0A9FF012250
:100D80001146900701F0F5FC0121880701F0D6FC1F
:100D90001FBD00B587B04FF4004000F018FB0121E3
:100DA000480200F02CFCFF20ADF8040000208DF874
:100DB000070001A9294800F0B9F8FF21274800F0F1
:100DC0006BF90320ADF8040000208DF8070001A99D
:100DD000234800F0ABF80321214800F05DF93F20E3
:100DE000ADF8040000208DF8070001A91D4800F0AF
:100DF0009DF83F211B4800F04FF91B4801F080FF90
:100E0000002002908DF80C008DF80D004FF460204A
:100E100004900020059001208DF8180002A91248C6
:100E200001F095FF0121104801F0BDFF0E4801F0CF
:100E3000DCFF00BF0C4801F0DDFF0028FAD10A48B2
:100E400001F0E2FF00BF084801F0E3FF0028FAD1FB
:100E500007B000BD00140140001801400008014027
:100E6000000C0140001001400024014010B5044670
:100E7000CA48844208D10121042000F0E7FB002188
:100E8000042000F0E3FB46E0C548844208D101217C
:100E9000082000F0DBFB0021082000F0D7FB3AE03F
:100EA000C048844208D10121102000F0CFFB00216E
:100EB000102000F0CBFB2EE0BB48844208D101217A
:100EC000202000F0C3FB0021202000F0BFFB22E027
:100ED000B648844208D10121402000F0B7FB002130
:100EE000402000F0B3FB16E0B148844208D1012154
:100EF000802000F0ABFB0021802000F0A7FB0AE07F
:100F0000AC48844207D10121801500F09FFB0021ED
:100F1000A01500F09BFB10BD10B50121084600F0A4
:100F200095FB0021012000F091FB10BD2DE9F0415F
:100F3000024600250026002000230024002791F807
:100F400003C00CF00F0591F803C01CF0100F03D084
:100F500091F802C04CEA050591F800C0BCF1000F01
:100F600031D0146800202BE04FF0010C0CFA00F394
:100F7000B1F800C00CEA03069E4220D183004FF076
:100F80000F0C0CFA03F7BC4305FA03FC4CEA04040B
:100F900091F803C0BCF1280F06D14FF0010C0CFAF8
:100FA00000FCC2F814C00AE091F803C0BCF1480F7D
:100FB00005D14FF0010C0CFA00FCC2F810C0401C27
:100FC0000828D1D31460B1F800C0BCF1FF0F34DDA4
:100FD000546800202EE000F1080C4FF0010808FAD8
:100FE0000CF3B1F800C00CEA03069E4221D1830045
:100FF0004FF00F0C0CFA03F7BC4305FA03FC4CEA64
:10100000040491F803C0BCF1280F05D100F1080CCD
:1010100008FA0CF8C2F8148091F803C0BCF1480F2C
:1010200007D100F1080C4FF0010808FA0CF8C2F8DB
:101030001080401C0828CED35460BDE8F0814FF6E4
:10104000FF710180022181700421C1707047024646
:10105000002093680B4201D0012000E0002070477F
:101060000146886880B2704702460020D3680B4270
:1010700001D0012000E0002070470146C86880B21E
:10108000704701617047416170470AB1016100E03A
:1010900041617047C16070474FF480320A438261FA
:1010A0008161826182698269704702460020424BF9
:1010B00018684FF68073184040EA021008433E4B10
:1010C000186070473D49C8617047F0B50A46002373
:1010D00000240021002500F00046B6F1004F02D1A7
:1010E000354EF16901E0344E7168C0F3034583B2B7
:1010F00000F44016B6F5401F08D121F070612E4E65
:10110000766826F070662C4F7E6012E000F4801640
:10111000B6F5801F06D1032606FA05F4A14341F077
:10112000706106E0460D360103FA06F6B14341F060
:10113000706122B1460D360103FA06F6314300F024
:101140000046B6F1004F02D11B4EF16101E01A4E8C
:101150007160F0BD30B500228B071C0F0F2303FA1E
:1011600004F2154B08338C1053F824309343124C7F
:1011700008348D1044F8253023468C1053F8243061
:101180008C07240F00FA04F423430B4C08348D1011
:1011900044F8253030BD0A49086070470008014016
:1011A000000C0140001001400014014000180140F3
:1011B000001C0140002001400000014000002042CE
:1011C000DC002042F948006840F00100F74908605F
:1011D00008464068F6490840F449486008460068F7
:1011E000F4490840F14908600846006820F480206E
:1011F00008600846406820F4FE0048600846006821
:1012000020F0A05008604FF47F0088600020C86282
:101210007047E649096821F48031E44A11601146BB
:10122000096821F480211160B0F5803F03D0B0F54A
:10123000802F0ED106E0DD49096841F48031DB4A98
:10124000116007E0D949096841F4A021D74A11602B
:1012500000E000BF00BF704710B501460022002328
:1012600000204A11012A02D1D04C236806E0022A4C
:1012700002D1CE4C236A01E0CC4C636A01F01F021C
:10128000012494401C4201D0012000E0002010BD48
:1012900038B5002000900024002500BF3120FFF762
:1012A000DBFF05460098401C00900098B0F5A06F49
:1012B00001D0002DF2D03120FFF7CEFF08B101247C
:1012C00000E00024204638BD01460020B74A1068DF
:1012D00020F0F80040EAC10010607047B64908608D
:1012E000704702460020B14B586820F4741042EA5F
:1012F00001031843AD4B58607047AF49086670470B
:1013000002460020A94BD86AAC4B184042EA0103C0
:101310001843A64BD862704701460020A34AD06A02
:1013200020F0F0000843D0627047014600209F4A39
:10133000D06A20F470600843D06270479E49886686
:10134000704701460020994AD06A20F47040084353
:10135000D062704798490867704701460020934A59
:10136000506820F003000843506070478F48406881
:1013700000F00C007047014600208C4A506820F0B5
:10138000F00008435060704701460020874A5068CB
:1013900020F4E06008435060704701460020834A13
:1013A000506820F4605040EAC1005060704729B195
:1013B0007E4A527A02437D4B5A7204E07B4A527A4B
:1013C00082437A4B5A7270477D49086070470146E4
:1013D0000020764A506820F440400843506070472F
:1013E0007849086070477749091D086070470021F7
:1013F000754A11706D4A82F82010012802D0042825
:1014000008D103E00121704A117004E005216E4A01
:10141000117000E000BF00BF70476C490860704762
:101420006249096A0143614A116270476749443958
:10143000086070472DE9F0410021002200250023BB
:101440000026002400278C46DFF86081D8F804804D
:1014500008F00C0121B1042907D0082959D109E06D
:10146000DFF86C81C0F8008058E0DFF86881C0F8D0
:10147000008053E0DFF83481D8F8048008F470125B
:10148000DFF82881D8F8048008F48035920C0D2A02
:1014900001D0921C00E0062235B9DFF83C8102FB46
:1014A00008F8C0F8008033E0DFF80081D8F82C801D
:1014B00008F48036DFF8F480D8F82C8008F00F08A4
:1014C00008F1010446B9DFF80C81B8FBF4F808FB19
:1014D00002F8C0F800801BE0DFF8D080D8F82C803C
:1014E000C8F3031808F10107DFF8C080D8F82C8092
:1014F000C8F3032808F1020CDFF8D880B8FBF7F82E
:1015000008FB0CF8B8FBF4F808FB02F8C0F8008000
:1015100004E0DFF8BC80C0F8008000BF00BFDFF847
:101520008C80D8F8048008F0F0010909DFF8AC805D
:1015300018F80130D0F8008028FA03F8C0F80480C9
:10154000DFF86880D8F8048008F4E061090ADFF861
:101550008C8018F80130D0F8048028FA03F8C0F81D
:101560000880DFF84880D8F8048008F46051C90A80
:10157000DFF8688018F80130D0F8048028FA03F802
:10158000C0F80C80DFF82480D8F8048008F44041CB
:10159000890BDFF84C8018F80130D0F80C80B8FBCC
:1015A000F3F8C0F81080BDE8F081000000100240A0
:1015B0000000FFF0FFFFF6FE00004242F0FFFEFFDA
:1015C000D8004242C40542422010024080044242F8
:1015D00000127A00001BB70000093D00080000203F
:1015E0001800002029B1354A52690243334B5A6131
:1015F00004E0324A52698243304B5A61704729B144
:101600002E4A926902432D4B9A6104E02B4A92695B
:1016100082432A4B9A61704729B1284AD269024312
:10162000264BDA6104E0254AD2698243234BDA6112
:10163000704729B1214A926A0243204B9A6204E022
:101640001E4A926A82431D4B9A62704729B11B4A17
:10165000D2680243194BDA6004E0184AD268824328
:10166000164BDA60704729B1144A12690243134BD2
:101670001A6104E0114A12698243104B1A617047E3
:101680000F49086070470F49C86470470B49C8711B
:1016900070470A48406A40F08070084948627047C5
:1016A00001460020054A92680A4201D0012000E06C
:1016B0000020704701498872704700000010024006
:1016C000400442420000424210B50446FB488442B6
:1016D00009D101218803FFF7B9FF00214FF48040B1
:1016E000FFF7B4FF32E0F648844209D101214804F3
:1016F000FFF7B9FF00214FF40030FFF7B4FF25E0FA
:10170000F048844209D101218804FFF7ACFF002191
:101710004FF48020FFF7A7FF18E0EB48844209D17F
:101720000121C804FFF79FFF00214FF40020FFF7BD
:101730009AFF0BE0E548844208D101210805FFF734
:1017400092FF00214FF48010FFF78DFF10BD2DE9AF
:10175000F04786B005460E460024A24600BFA146CB
:101760000027B08900B100BF2F462C8A4CF6FF70CD
:101770000440F08804432C82AC894EF6F3100440F8
:10178000B08831890843718908430443AC81AC8A2D
:101790004FF6FF400440B0890443AC8201A8FFF734
:1017A00049FEC648874202D1DDF810A001E0DDF80D
:1017B0000CA0A88910F4004F08D00AEBCA0000EB77
:1017C0000A1031684900B0FBF1F807E00AEBCA00E3
:1017D00000EB0A1031688900B0FBF1F86420B8FB17
:1017E000F0F004012009642101FB1089A88910F49C
:1017F000004F08D0322000EBC900B0FBF1F000F040
:101800000700044308E0322000EB09106421B0FB1C
:10181000F1F000F00F0004432C8106B0BDE8F08722
:101820004FF41651016000218180C18001810C219B
:10183000418100218181704710B502460020108A45
:101840004FF2FF0318400B884C8823438C882343B6
:10185000CC8823431843108210BD002101804180B1
:101860008180C1807047012904D1828942F40052ED
:10187000828104E082894DF6FF731A4082817047AD
:10188000F0B503460024002600250020A1F51067CE
:101890006A3F00D100BF1846C1F3421401F01F0691
:1018A000012707FA06F5012C01D10C3004E0022CC7
:1018B00001D1103000E014301AB107682F430760DF
:1018C00002E00768AF430760F0BD1AB1838A0B439B
:1018D000838202E0838A8B4383827047028A4FF6B9
:1018E000F0731A400282028A0A4302827047828998
:1018F0004FF2FF731A40828182890A4382817047C6
:1019000021B1828942F00202828104E082894FF68D
:10191000FD731A4082817047028A4FF6DF731A40C6
:101920000282028A0A430282704721B1028A42F48B
:101930008042028204E0028A4BF6FF731A40028260
:101940007047C1F308028280704701468888C0F35F
:1019500008007047818941F0010181817047028B45
:10196000D2B20283028B42EA012202837047028BC9
:1019700002F47F420283028B0A430283704721B143
:10198000828A42F02002828204E0828A4FF6DF736C
:101990001A408282704721B1828A42F0100282820C
:1019A00004E0828A4FF6EF731A408282704721B1B9
:1019B000828A42F00802828204E0828A4FF6F7733C
:1019C0001A408282704721B1828942F400428281AA
:1019D00003E08289C2F30E028281704721B1828ABC
:1019E00042F40062828204E0828A4FF2FF731A405E
:1019F00082827047828A4FF6FB731A408282828A03
:101A00000A438282704721B1828A42F002028282B6
:101A100004E0828A4FF6FD731A40828270470246C4
:101A20000020B1F5007F00D100BF13880B4201D028
:101A3000012000E00020704701F40072B2F5007F41
:101A400000D100BFCA430280704770B5024600242F
:101A5000002300250020A1F510666A3E00D100BFDA
:101A6000C1F3421501F01F03012606FA03F3012D0D
:101A700002D19689334006E0022D02D1168A334006
:101A800001E0968A33400C12012606FA04F4168807
:101A9000344013B10CB1012000E0002070BD10B53E
:101AA00000220023A1F510646A3C00D100BF0A1295
:101AB00001249440A3B2DC43048010BD00380140EF
:101AC0000044004000480040004C004000500040EE
:101AD000002044490860091D0860091D0860091DAF
:101AE000086041483F4914310860704700213D4972
:101AF0008279002A3AD00A46126803689A430B4654
:101B00001A600A1D126803689A430B1D1A60027955
:101B100011440A6803681A430A60324A083212689C
:101B200003689A432F4B08331A601A1D1268036822
:101B30009A432C4B0C331A604279102A0ED11A1F8B
:101B4000126803681A43274B08331A601A1D12687B
:101B500003681A43234B0C331A600DE02149427984
:101B600011440A6803681A430A6005E002791144C7
:101B70000A6803689A430A60704700210160017196
:101B80000C2141710021817170471649103109689B
:101B90000143144A10321160704701460020114A77
:101BA000143212680A4201D0012000E00020704780
:101BB0000C49143108607047014600200022094B8F
:101BC0001B6803EA0102074B14331B680B4202D067
:101BD0000AB1012000E0002070470249143108607A
:101BE0007047000000040140FFFF0F00314901432E
:101BF000314A1160704770B5002100230F22C4786C
:101C00000CB32D4C246804F4E064C4F5E064210AAC
:101C1000C1F10403CA40447804FA03F18478144003
:101C200021430901254C0678A155047804F01F05CD
:101C30000124AC4005786D114FF0E02606EB8505D8
:101C4000C5F8004109E0047804F01F050124AC4008
:101C50001B4D0678761145F8264070BD194A0A409A
:101C60000243154B1B1F1A60704739B1124A121DEF
:101C700012680243104B1B1D1A6006E00E4A121D2B
:101C8000126882430C4B1B1D1A607047042808D150
:101C90004FF0E021096941F004014FF0E0221161A9
:101CA00007E04FF0E021096921F004014FF0E02244
:101CB000116170470000FA050CED00E000E400E05F
:101CC00080E100E080FFFF1F704700BFFEE700BF1C
:101CD000FEE700BFFEE700BFFEE7704770477047B2
:101CE00010B50121880700F0F6FF48B101218807EF
:101CF00001F002F8AF48008810B10020AD4908801B
:101D000010BD7047AC4931F81010491CAA4A22F89E
:101D10001010704710B50120FFF74EFF28B10220C8
:101D2000FFF7F0FF0120FFF758FF10BD10B50220AC
:101D3000FFF742FF28B10120FFF7E4FF0220FFF781
:101D40004CFF10BD10B50420FFF736FF28B104206A
:101D5000FFF7D8FF0420FFF740FF10BD10B50820A3
:101D6000FFF72AFF28B10520FFF7CCFF0820FFF777
:101D700034FF10BD10B51020FFF71EFF28B106205C
:101D8000FFF7C0FF1020FFF728FF10BD10B5052496
:101D90002AE0012101FA04F0FFF70EFF10B3601FE3
:101DA000052818D2DFE800F003070B0F1300072007
:101DB000FFF7A8FF10E00020FFF7A4FF0CE00320CE
:101DC000FFF7A0FF08E00A20FFF79CFF04E00B20CC
:101DD000FFF798FF00E000BF00BF012101FA04F007
:101DE000FFF7FBFE601CC4B2092CD2DD10BD10B59C
:101DF0000A242FE0012101FA04F0FFF7DDFE38B3D9
:101E0000A4F10A0006281CD2DFE800F003070B0F3C
:101E100013170820FFF776FF14E00920FFF772FF81
:101E200010E00F20FFF76EFF0CE00E20FFF76AFFB7
:101E300008E00D20FFF766FF04E00C20FFF762FFCB
:101E400000E000BF00BF012101FA04F0FFF7C5FE6A
:101E5000601CC4B20F2CCDDD10BD10B540F2255171
:101E60005648FFF7F2FD00284ED040F22551534866
:101E7000FFF715FE5148FFF768FD5149514A1278A6
:101E8000885450480078401C4E4908700846007835
:101E900000F03F0008704C48007898BB0846007876
:101EA000401E4749085C5B2805D146480078401E23
:101EB000464908704FE043480078401E4049085C9E
:101EC000B52848D13F480078401E4149087008466F
:101ED00000783E490978401A3E490978884203D182
:101EE00001203949087036E0002037490870374929
:101EF00008703749087007203649087000203149BA
:101F0000087028E0FFE726E040F227712B48FFF732
:101F10009CFD00B330480078401C2F49087040F207
:101F200027712648FFF7BBFD2C482B4A1278815CAD
:101F30002248FFF706FD2848007887280BDB00229F
:101F400040F227711D48FFF79BFC012024490870CF
:101F500000202149087008211848FFF760FD01287A
:101F60000AD108211548FFF767FD1448FFF7EDFC7B
:101F70001349144A1278885410BD0FB410B50020CC
:101F800015490870164908708824224602A913488A
:101F900001F0DDF81148104A1278815C0748FFF71C
:101FA000D0FC012240F227710448FFF769FC10BC05
:101FB0005DF814FB000000202000002000380140E4
:101FC0004000002005000020010000200200002049
:101FD00003000020040000201C00002080000020DE
:101FE0000700002010B50446FE48844208D10121B4
:101FF000C014FFF72BFB0021E014FFF727FBC4E020
:10200000B4F1804F08D101210846FFF72CFB0021D5
:102010000120FFF728FBB8E0F348844208D10121F2
:102020000220FFF720FB00210220FFF71CFBACE0A1
:10203000EE48844208D101210420FFF714FB00215F
:102040000420FFF710FBA0E0E948844208D10121F9
:102050000820FFF708FB00210820FFF704FB94E0AD
:10206000E448844208D101211020FFF7FCFA002146
:102070001020FFF7F8FA88E0DF48844208D10121F8
:102080002020FFF7F0FA00212020FFF7ECFA7CE097
:10209000DA48844208D101214014FFF7D7FA002121
:1020A0006014FFF7D3FA70E0D548844209D10121CA
:1020B000C804FFF7CBFA00214FF40020FFF7C6FA5F
:1020C00063E0D048844209D101210805FFF7BEFA38
:1020D00000214FF48010FFF7B9FA56E0CA48844255
:1020E00009D101214805FFF7B1FA00214FF4001092
:1020F000FFF7ACFA49E0C548844208D101214020ED
:10210000FFF7B1FA00214020FFF7ADFA3DE0C048EB
:10211000844208D101218020FFF7A5FA0021802008
:10212000FFF7A1FA31E0BB48844208D101218015B4
:10213000FFF799FA0021A015FFF795FA25E0B648B8
:10214000844209D101210804FFF780FA00214FF4ED
:102150008030FFF77BFA18E0B048844209D10121B2
:102160004804FFF773FA00214FF40030FFF76EFACE
:102170000BE0AB48844208D101218804FFF766FADE
:1021800000214FF48020FFF761FA10BD0022028881
:10219000944B98420ED0994B98420BD0B0F1804F9F
:1021A00008D0914B984205D0904B984202D0904B6A
:1021B000984204D14FF68F731A404B881A438D4BC7
:1021C000984207D08C4B984204D04FF6FF431A40F8
:1021D000CB881A4302808B8883850B880385814BCB
:1021E00098420BD0854B984208D08B4B984205D033
:1021F0008A4B984202D08A4B984201D10B7A0386CF
:1022000001238382704770B5002400220023058CCF
:102210004FF6FE7635400584028C8388048B4FF69A
:102220008F752C40B51E2C400D882C43751E2A40FE
:102230000D892A434D882A436A4DA8420BD06F4D21
:10224000A84208D0744DA84205D0744DA84202D0CF
:10225000734DA84213D14FF6F7752A404D892A4392
:102260004FF6FB752A408D882A434FF6FF652B40B9
:102270004FF6FF552B408D892B43CD892B4383800F
:102280000483CD888586028470BD70B50024002249
:102290000023058C4FF6EF7635400584028C838849
:1022A000048B48F6FF752C404FF6FF452C400D88F7
:1022B0004FF6FF7606EA05252C434FF6DF752A40D8
:1022C0000D8906EA05152A434D8806EA05152A43B5
:1022D000444DA84202D0494DA8421DD14FF67F750A
:1022E0002A404D894FF6FF7606EA05152A434FF638
:1022F000BF752A408D8806EA05152A434FF6FF353B
:102300002B404FF2FF752B408D8906EA85052B4344
:10231000CD8906EA85052B4383800483CD88058714
:10232000028470BD70B5002400220023058C4FF696
:10233000FF6635400584028C8388848B4FF68F7549
:102340002C404FF6FC752C400D882C434FF6FF5562
:102350002A400D894FF6FF7606EA05252A434D8867
:1023600006EA05252A431F4DA84202D0234DA84264
:102370001DD14FF2FF752A404D894FF6FF7606EAD0
:1023800005252A434FF6FF352A408D8806EA0525A4
:102390002A434EF6FF752B404DF6FF752B408D8975
:1023A00006EA05152B43CD8906EA05152B438380E4
:1023B0008483CD888587028470BD70B50022002398
:1023C0000024058C4EF6FF7635400584038C848806
:1023D000828B48F6FF752A404FF6FF452A400D884C
:1023E00020E00000002C01400004004000080040F4
:1023F000000C004000100040001400400034014078
:10240000004C0140005001400054014000180040C1
:10241000001C0040002000400040014000440140FA
:10242000004801404FF6FF7606EA05252A434DF69F
:10243000FF752B400D8906EA05352B434D8806EACA
:1024400005352B43FB4DA84202D0FB4DA84208D1D5
:102450004BF6FF752C408D894FF6FF7606EA851501
:102460002C4384808283CD88A0F84050038470BDC3
:10247000828B4FF2FF331A408283828B4FF6FF73B9
:1024800003EA01231A4382837047F0B50C461546D0
:10249000002100220026078C4EF6FF7C07EA0C077D
:1024A0000784818B028C4FF6FF7707EA043640F6EB
:1024B000FF4739404FF6FF7707EA052739434FF6C4
:1024C000FF7707EA033739434DF6FF773A4046F482
:1024D00080573A4381830284F0BD828B4FF6F373B9
:1024E0001A408283828B0A4382837047F0B50C4680
:1024F0001546002100220026078C4FF6FF6C07EAE4
:102500000C070784818B028C4FF6FF7707EA0426BD
:102510004FF60C7739404FF6FF7707EA03172F4342
:1025200039434FF6FF573A4046F480773A43818368
:102530000284F0BD028B4FF2FF331A400283028BFC
:102540004FF6FF7303EA01231A4302837047F0B585
:102550000C461546002100220026078C4FF6EF7C22
:1025600007EA0C070784018B028C4FF6FF7707EA16
:10257000041640F6FF4739404FF6FF7707EA033766
:1025800039434FF6FF7707EA052739434FF6DF77E0
:102590003A4046F010073A4301830284F0BD028BB3
:1025A0004FF6F3731A400283028B0A43028370478B
:1025B000F0B50C46154600210022068C4FF6FE773A
:1025C0003E400684018B028C4FF60C7631407E1C17
:1025D00006EA03162E4331437E1E324044F00106C4
:1025E000324301830284F0BD70B505460C46208855
:1025F00050B92389A28861882846FFF7D9FFE1886E
:102600002846FFF7CCFF25E0208804280AD123893B
:10261000A28861882846FFF79AFFE1882846FFF7DD
:1026200089FF17E0208808280AD12389A2886188B9
:102630002846FFF75BFFE1882846FFF74EFF09E0D9
:102640002389A28861882846FFF71FFFE188284672
:10265000FFF70EFF70BD2DE9F04105460C46002640
:102660000127608808B9022600E00026A08801281A
:1026700001D1022700E001272088A0B92389A28880
:1026800061882846FFF794FFE1882846FFF787FF17
:1026900023893A4631462846FFF759FFE188284604
:1026A000FFF748FF13E02389A28861882846FFF7D7
:1026B0004EFFE1882846FFF73DFF23893A46314621
:1026C0002846FFF775FFE1882846FFF768FFBDE859
:1026D000F0810A884B881A438B881A43CB881A43A7
:1026E0000B891A434B891A438B891A43A0F844205B
:1026F00070474FF6FF71818000210180C1804180C9
:10270000017270470021018041808180C180018178
:1027100041818181C1817047002101804180012177
:1027200081800021C18001817047002101804180AA
:102730008180C180018141818181704721B10288FE
:1027400042F00102028004E002884FF6FE731A4054
:102750000280704731B1B0F8442042F40042A0F842
:10276000442005E0B0F84420C2F30E02A0F8442053
:1027700070471AB183890B43838102E083898B43BD
:10278000838170478182704741EA0203A0F8483094
:1027900070471AB183890B43838102E083898B439D
:1027A0008381704701894FF6F872114001817047AB
:1027B0000A46002101894FF68F73194011430181A8
:1027C000704730B504460D4629462046FFF7F0FF16
:1027D000208940F00700208130BD2DE9F0410446FA
:1027E0000D4616461F46602D06D13B460122314656
:1027F0002046FFF7ACFE05E03B460122314620466D
:10280000FFF7D6FE29462046FFF7D2FF208940F089
:1028100007002081BDE8F08130B50C460021018918
:10282000C9B24FF6FF7505EA032515432543294331
:10283000018130BD002C0140003401402DE9F04100
:1028400005460E4617469846002443463A4631460A
:102850002846FFF7E1FF2C894FF6F870044044F05A
:1028600007044FF68F70044044F070042C81BDE8DB
:10287000F081F0B504460D4616461F463B463246EB
:1028800029462046FFF7C8FF208940F48040208178
:10289000F0BD0185828270470A46002101884FF60B
:1028A0008F731940114301807047F0B50C461546EF
:1028B0001E460021002200230189028B038C4FF663
:1028C000F877394021434FF6FC473A4040F2011770
:1028D0003A434FF6DD773B404FF6FF7707EA06179E
:1028E0002F433B43018102830384F0BD0A4600214C
:1028F000018B4FF68F7319401143018370470A46CD
:102900000021018B48F6FF7319404FF6FF7303EA6D
:1029100002231943018370470A460021818B4FF639
:102920008F7319401143818370470A460021818BC0
:1029300048F6FF7319404FF6FF7303EA0223194369
:102940008183704721B1028842F08002028004E056
:1029500002884FF67F731A400280704721B1828847
:1029600042F00402828004E082884FF6FB731A4032
:102970008280704721B1828842F00802828004E0A0
:1029800082884FF6F7731A408280704721B182889F
:1029900042F00102828004E082884FF6FE731A4002
:1029A000828070470A460021018B4FF6F773194069
:1029B0001143018370470A460021018B4FF2FF73D8
:1029C00019404FF6FF7303EA02231943018370474E
:1029D0000A460021818B4FF6F7731940114381831A
:1029E00070470A460021818B4FF2FF7319404FF662
:1029F000FF7303EA02231943818370470A460021CB
:102A0000018B4FF6FB7319401143018370470A464F
:102A10000021018B4FF6FF3319404FF6FF7303EA95
:102A200002231943018370470A460021818B4FF628
:102A3000FB7319401143818370470A460021818B43
:102A40004FF6FF3319404FF6FF7303EA0223194391
:102A5000818370470A460021018B4FF67F7319402E
:102A60001143018370470A460021018BC1F30E0117
:102A70004FF6FF7303EA02231943018370470A46A6
:102A80000021818B4FF67F7319401143818370477A
:102A90000A460021818BC1F30E014FF6FF7303EA52
:102AA00002231943818370470A460021018C4FF6A7
:102AB000FD7319401143018470470A460021018CBF
:102AC0004FF6F77319401143018470470A460021FD
:102AD000018C4FF6DF7319404FF6FF7303EA0213C0
:102AE0001943018470470A460021018C4FF67F7319
:102AF00019404FF6FF7303EA02131943018470472C
:102B00000A460021018C4FF6FF5319404FF6FF7320
:102B100003EA02231943018470470A460021018C0D
:102B20004FF2FF7319404FF6FF7303EA0223194374
:102B3000018470470A460021018C4DF6FF7319404D
:102B40004FF6FF7303EA023319430184704730B52F
:102B5000002301248C40A3B2048C9C430484048C85
:102B600002FA01F5ADB22C43048430BD30B5002328
:102B700004248C40A3B2048C9C430484048C02FA89
:102B800001F5ADB22C43048430BD70B5034600207E
:102B900000241846183001258D40ACB21D8CA54389
:102BA0001D8409B1082909D100EB6100056825F0F1
:102BB000700505600568154305600EE00D1FC5F33F
:102BC0004E052844056825F4E045056005684FF684
:102BD000FF7606EA02263543056070BD21B1028802
:102BE00042F00202028004E002884FF6FD731A40B0
:102BF0000280704721B1028842F00402028004E0A2
:102C000002884FF6FB731A400280704721B1828818
:102C100042F08002828004E082884FF67F731A407F
:102C20008280704702884FF6F7731A40028002884C
:102C30000A430280704782884FF68F731A40828061
:102C400082880A438280704702894FF6F8731A40DF
:102C5000028102890A430281704702894FF67F731D
:102C60001A40028102890A430281704781847047B9
:102C700081857047818670470187704781877047DB
:102C8000A0F84010704702884FF6FF431A400280B8
:102C900002880A43028070470146888E70470146C9
:102CA000088F70470146888F70470146B1F8400091
:102CB00070470146888C70470146088D7047024670
:102CC0000020138A0B4201D0012000E00020704751
:102CD000CA430282704730B5024600200023002418
:102CE000158A05EA0103958905EA010413B10CB1BF
:102CF000012000E0002030BDCA430282704700007E
:102D000010B50446FA48844208D101214015FEF767
:102D10009DFC00216015FEF799FC17E0F548844200
:102D200008D101210015FEF791FC00212015FEF7C6
:102D30008DFC0BE0F048844208D10121C803FEF766
:102D400085FC00214FF40040FEF780FC10BD30B53B
:102D50000246002000235068E84C20400D790C68A2
:102D600044EA0524204350609068E54C2040D1E9B6
:102D700002542C434D7944EA450420439060D06AC4
:102D800020F470000C7C641EE4B2234340EA03503C
:102D9000D06230BD00210160017141718160C1606C
:102DA00001210174704721B1826842F00102826002
:102DB00003E0826822F001028260704721B18268DC
:102DC00042F48072826003E0826822F48072826042
:102DD000704710B50023CBB21AB144681C4344605D
:102DE00002E044689C43446010BD816841F00801E2
:102DF00081607047014600208A6812F0080F01D0F8
:102E0000012000E000207047816841F004018160EA
:102E10007047014600208A6812F0040F01D001209B
:102E200000E00020704721B1826842F4A002826075
:102E300003E0826822F4A00282607047014600200D
:102E40008A6812F4800F01D0012000E00020704752
:102E500010B50A4600210023416821F46041531E49
:102E600041EA4331416010BD21B1426842F4006241
:102E7000426003E0426822F4006242607047F0B5AD
:102E800004460D4600200021092D11DDE068A5F162
:102E90000A0606EB4607072606FA07F18843A5F15E
:102EA0000A0606EB460603FA06F10843E0600CE06A
:102EB000206905EB4507072606FA07F1884305EB6D
:102EC000450603FA06F108432061072A0FDA606B12
:102ED000561E06EB86071F2606FA07F18843561E84
:102EE00006EB860605FA06F10843606322E00D2A28
:102EF0000FDA206BD61F06EB86071F2606FA07F1AE
:102F00008843D61F06EB860605FA06F108432063C0
:102F100010E0E06AA2F10D0606EB86071F2606FA0E
:102F200007F18843A2F10D0606EB860605FA06F1C5
:102F30000843E062F0BD21B1826842F480128260F1
:102F400003E0826822F48012826070470146C86CF8
:102F500080B2704766484C300068704721B14268C3
:102F600042F48062426003E0426822F48062426080
:102F7000704721B1426842F48052426003E04268E7
:102F800022F48052426070470A460021816821F491
:102F9000E04111438160704721B1826842F40042F0
:102FA000826003E0826822F400428260704721B1AF
:102FB000826842F40212826003E0826822F4021204
:102FC00082607047014600208A6812F4001F01D019
:102FD000012000E000207047F0B5044615460020AF
:102FE00000220026092911DDE068A1F10A0707EB9C
:102FF000470C072707FA0CF29043A1F10A0707EBE9
:10300000470703FA07F21043E0600CE0206901EB88
:10301000410C072707FA0CF2904301EB410703FA32
:1030200007F210432061A06BC0F30156EF1C06F1BC
:10303000010CA7EB0C0707EB870C1F2707FA0CF214
:103040009043EF1C06F1010CA7EB0C0707EB870779
:1030500001FA07F21043A063F0BD10B50A46002143
:103060000023816B21F44011531E41EA0351816317
:1030700010BD08B5002300930090009B0B44009303
:10308000009B1A6008BD08B502460020009000921F
:1030900001F12800009B184400900098006880B25D
:1030A00008BD0A4600214168164B19401143416092
:1030B00070474162826270470A460021416821F0F0
:1030C0001F0111434160704740B109490831096847
:1030D00041F40001064A0832116007E00449083152
:1030E000096821F40001024A0832116070470000AB
:1030F0000024014000280140003C0140FFFEF0FF99
:10310000FDF7F1FFFFFD3FFF0246002013680B4271
:1031100001D0012000E000207047CA4302607047E0
:1031200070B502460020002300240B125568CEB271
:1031300005EA060415681D4202D00CB1012000E02A
:10314000002070BD00220A12D34303607047032A97
:1031500040F2308010F0030C00F0158011F8013BB4
:10316000BCF1020F624498BF11F801CB00F8013B9B
:1031700038BF11F8013BA2F1040298BF00F801CB5F
:1031800038BF00F8013B11F0030300F02580083A36
:10319000C0F0088051F8043B083A51F804CBA0E88D
:1031A0000810F5E7121D5CBF51F8043B40F8043BE2
:1031B000AFF30080D20724BF11F8013B11F801CB17
:1031C00048BF11F8012B24BF00F8013B00F801CBE8
:1031D00048BF00F8012B704710B5203AC0F00B80B3
:1031E000B1E81850203AA0E81850B1E81850A0E80B
:1031F0001850BFF4F5AF5FEA027C24BFB1E8185065
:10320000A0E8185044BF18C918C0BDE810405FEAD4
:10321000827C24BF51F8043B40F8043B08BF704750
:10322000D20728BF31F8023B48BF11F8012B28BF55
:1032300020F8023B48BF00F8012B704770477047E9
:103240007047754600F028F8AE46050069465346BB
:1032500020F00700854618B020B5FCF7A3FFBDE8B5
:1032600020404FF000064FF000074FF000084FF0ED
:10327000000B21F00701AC46ACE8C009ACE8C0097E
:10328000ACE8C009ACE8C0098D4670470446AFF30E
:1032900000802046FCF771FF0048704708010020BD
:1032A00001491820ABBEFEE726000200704700006F
:1032B000D032000800000020200000002801000893
:1032C000F0320008200000204807000044010008F8
:1032D00000000000000000000000000001020304E4
:1032E00001020304060708090204060800000000A2
:04000005080000ED02
:00000001FF
